{
  "contractName": "Payroll",
  "abi": [
    {
      "constant": false,
      "inputs": [],
      "name": "hasEnoughFund",
      "outputs": [
        {
          "name": "",
          "type": "bool"
        }
      ],
      "payable": false,
      "stateMutability": "nonpayable",
      "type": "function"
    },
    {
      "constant": false,
      "inputs": [],
      "name": "calculateRunway",
      "outputs": [
        {
          "name": "",
          "type": "uint256"
        }
      ],
      "payable": false,
      "stateMutability": "nonpayable",
      "type": "function"
    },
    {
      "constant": false,
      "inputs": [
        {
          "name": "employeeId",
          "type": "address"
        },
        {
          "name": "salary",
          "type": "uint256"
        }
      ],
      "name": "updateEmployee",
      "outputs": [],
      "payable": false,
      "stateMutability": "nonpayable",
      "type": "function"
    },
    {
      "constant": false,
      "inputs": [
        {
          "name": "employeeNewId",
          "type": "address"
        }
      ],
      "name": "changePaymentAddress",
      "outputs": [],
      "payable": false,
      "stateMutability": "nonpayable",
      "type": "function"
    },
    {
      "constant": false,
      "inputs": [],
      "name": "checkInfo",
      "outputs": [
        {
          "name": "balance",
          "type": "uint256"
        },
        {
          "name": "runway",
          "type": "uint256"
        },
        {
          "name": "employeeCount",
          "type": "uint256"
        }
      ],
      "payable": false,
      "stateMutability": "nonpayable",
      "type": "function"
    },
    {
      "constant": true,
      "inputs": [],
      "name": "owner",
      "outputs": [
        {
          "name": "",
          "type": "address"
        }
      ],
      "payable": false,
      "stateMutability": "view",
      "type": "function"
    },
    {
      "constant": false,
      "inputs": [
        {
          "name": "index",
          "type": "uint256"
        }
      ],
      "name": "checkEmployee",
      "outputs": [
        {
          "name": "employeeId",
          "type": "address"
        },
        {
          "name": "salary",
          "type": "uint256"
        },
        {
          "name": "lastPayDay",
          "type": "uint256"
        }
      ],
      "payable": false,
      "stateMutability": "nonpayable",
      "type": "function"
    },
    {
      "constant": false,
      "inputs": [],
      "name": "addFund",
      "outputs": [
        {
          "name": "",
          "type": "uint256"
        }
      ],
      "payable": true,
      "stateMutability": "payable",
      "type": "function"
    },
    {
      "constant": false,
      "inputs": [],
      "name": "getPaid",
      "outputs": [],
      "payable": false,
      "stateMutability": "nonpayable",
      "type": "function"
    },
    {
      "constant": true,
      "inputs": [
        {
          "name": "",
          "type": "address"
        }
      ],
      "name": "employees",
      "outputs": [
        {
          "name": "id",
          "type": "address"
        },
        {
          "name": "salary",
          "type": "uint256"
        },
        {
          "name": "lastPayDay",
          "type": "uint256"
        }
      ],
      "payable": false,
      "stateMutability": "view",
      "type": "function"
    },
    {
      "constant": false,
      "inputs": [
        {
          "name": "employeeId",
          "type": "address"
        }
      ],
      "name": "removeEmployee",
      "outputs": [],
      "payable": false,
      "stateMutability": "nonpayable",
      "type": "function"
    },
    {
      "constant": false,
      "inputs": [
        {
          "name": "employeeId",
          "type": "address"
        },
        {
          "name": "_salary",
          "type": "uint256"
        }
      ],
      "name": "addEmployee",
      "outputs": [],
      "payable": false,
      "stateMutability": "nonpayable",
      "type": "function"
    },
    {
      "constant": false,
      "inputs": [
        {
          "name": "newOwner",
          "type": "address"
        }
      ],
      "name": "transferOwnership",
      "outputs": [],
      "payable": false,
      "stateMutability": "nonpayable",
      "type": "function"
    },
    {
      "anonymous": false,
      "inputs": [
        {
          "indexed": false,
          "name": "employee",
          "type": "address"
        }
      ],
      "name": "AddEmployee",
      "type": "event"
    },
    {
      "anonymous": false,
      "inputs": [
        {
          "indexed": false,
          "name": "employee",
          "type": "address"
        }
      ],
      "name": "UpdateEmployee",
      "type": "event"
    },
    {
      "anonymous": false,
      "inputs": [
        {
          "indexed": false,
          "name": "employee",
          "type": "address"
        }
      ],
      "name": "RemoveEmployee",
      "type": "event"
    },
    {
      "anonymous": false,
      "inputs": [
        {
          "indexed": false,
          "name": "balance",
          "type": "uint256"
        }
      ],
      "name": "AddFund",
      "type": "event"
    },
    {
      "anonymous": false,
      "inputs": [
        {
          "indexed": false,
          "name": "employee",
          "type": "address"
        }
      ],
      "name": "GetPaid",
      "type": "event"
    },
    {
      "anonymous": false,
      "inputs": [
        {
          "indexed": true,
          "name": "previousOwner",
          "type": "address"
        },
        {
          "indexed": true,
          "name": "newOwner",
          "type": "address"
        }
      ],
      "name": "OwnershipTransferred",
      "type": "event"
    }
  ],
  "bytecode": "0x6060604052336000806101000a81548173ffffffffffffffffffffffffffffffffffffffff021916908373ffffffffffffffffffffffffffffffffffffffff160217905550611723806100536000396000f3006060604052600436106100c5576000357c0100000000000000000000000000000000000000000000000000000000900463ffffffff16806323fed09e146100ca5780634ec19512146100f75780635e91d8ec146101205780637124d6131461016257806385a962581461019b5780638da5cb5b146101d257806396b0269614610227578063a2f09dfa14610298578063cf41d6f8146102b6578063d0678947146102cb578063d108177a14610352578063e7fd9a131461038b578063f2fde38b146103cd575b600080fd5b34156100d557600080fd5b6100dd610406565b604051808215151515815260200191505060405180910390f35b341561010257600080fd5b61010a610417565b6040518082815260200191505060405180910390f35b341561012b57600080fd5b610160600480803573ffffffffffffffffffffffffffffffffffffffff1690602001909190803590602001909190505061044a565b005b341561016d57600080fd5b610199600480803573ffffffffffffffffffffffffffffffffffffffff169060200190919050506106ce565b005b34156101a657600080fd5b6101ae61097e565b60405180848152602001838152602001828152602001935050505060405180910390f35b34156101dd57600080fd5b6101e56109bd565b604051808273ffffffffffffffffffffffffffffffffffffffff1673ffffffffffffffffffffffffffffffffffffffff16815260200191505060405180910390f35b341561023257600080fd5b61024860048080359060200190919050506109e2565b604051808473ffffffffffffffffffffffffffffffffffffffff1673ffffffffffffffffffffffffffffffffffffffff168152602001838152602001828152602001935050505060405180910390f35b6102a0610a7c565b6040518082815260200191505060405180910390f35b34156102c157600080fd5b6102c9610ae9565b005b34156102d657600080fd5b610302600480803573ffffffffffffffffffffffffffffffffffffffff16906020019091905050610cdb565b604051808473ffffffffffffffffffffffffffffffffffffffff1673ffffffffffffffffffffffffffffffffffffffff168152602001838152602001828152602001935050505060405180910390f35b341561035d57600080fd5b610389600480803573ffffffffffffffffffffffffffffffffffffffff16906020019091905050610d25565b005b341561039657600080fd5b6103cb600480803573ffffffffffffffffffffffffffffffffffffffff16906020019091908035906020019091905050611161565b005b34156103d857600080fd5b610404600480803573ffffffffffffffffffffffffffffffffffffffff16906020019091905050611438565b005b600080610411610417565b11905090565b60006104456001543073ffffffffffffffffffffffffffffffffffffffff163161158d90919063ffffffff16565b905090565b6000806000809054906101000a900473ffffffffffffffffffffffffffffffffffffffff1673ffffffffffffffffffffffffffffffffffffffff163373ffffffffffffffffffffffffffffffffffffffff161415156104a857600080fd5b836000600460008373ffffffffffffffffffffffffffffffffffffffff1673ffffffffffffffffffffffffffffffffffffffff168152602001908152602001600020905060008160000160009054906101000a900473ffffffffffffffffffffffffffffffffffffffff1673ffffffffffffffffffffffffffffffffffffffff161415151561053357fe5b600460008773ffffffffffffffffffffffffffffffffffffffff1673ffffffffffffffffffffffffffffffffffffffff168152602001908152602001600020935061058f670de0b6b3a7640000866115a890919063ffffffff16565b9250836001015483141515156105a157fe5b61062084606060405190810160405290816000820160009054906101000a900473ffffffffffffffffffffffffffffffffffffffff1673ffffffffffffffffffffffffffffffffffffffff1673ffffffffffffffffffffffffffffffffffffffff168152602001600182015481526020016002820154815250506115e3565b61064b8361063d866001015460015461166f90919063ffffffff16565b61168890919063ffffffff16565b6001819055508284600101819055504284600201819055507f488bacda22fcd72c26e796890d62491cef03e8de61cad515b1826a683f2e760f86604051808273ffffffffffffffffffffffffffffffffffffffff1673ffffffffffffffffffffffffffffffffffffffff16815260200191505060405180910390a1505050505050565b6000336000600460008373ffffffffffffffffffffffffffffffffffffffff1673ffffffffffffffffffffffffffffffffffffffff168152602001908152602001600020905060008160000160009054906101000a900473ffffffffffffffffffffffffffffffffffffffff1673ffffffffffffffffffffffffffffffffffffffff161415151561075b57fe5b836000600460008373ffffffffffffffffffffffffffffffffffffffff1673ffffffffffffffffffffffffffffffffffffffff168152602001908152602001600020905060008160000160009054906101000a900473ffffffffffffffffffffffffffffffffffffffff1673ffffffffffffffffffffffffffffffffffffffff161415156107e557fe5b600460003373ffffffffffffffffffffffffffffffffffffffff1673ffffffffffffffffffffffffffffffffffffffff16815260200190815260200160002094506060604051908101604052808773ffffffffffffffffffffffffffffffffffffffff168152602001866001015481526020018660020154815250600460008873ffffffffffffffffffffffffffffffffffffffff1673ffffffffffffffffffffffffffffffffffffffff16815260200190815260200160002060008201518160000160006101000a81548173ffffffffffffffffffffffffffffffffffffffff021916908373ffffffffffffffffffffffffffffffffffffffff1602179055506020820151816001015560408201518160020155905050600460003373ffffffffffffffffffffffffffffffffffffffff1673ffffffffffffffffffffffffffffffffffffffff168152602001908152602001600020600080820160006101000a81549073ffffffffffffffffffffffffffffffffffffffff0219169055600182016000905560028201600090555050505050505050565b60008060003073ffffffffffffffffffffffffffffffffffffffff163192506002549050600060015411156109b8576109b5610417565b91505b909192565b6000809054906101000a900473ffffffffffffffffffffffffffffffffffffffff1681565b6000806000806003858154811015156109f757fe5b906000526020600020900160009054906101000a900473ffffffffffffffffffffffffffffffffffffffff169350600460008573ffffffffffffffffffffffffffffffffffffffff1673ffffffffffffffffffffffffffffffffffffffff16815260200190815260200160002090508060010154925080600201549150509193909250565b60007f7a651fc0ce07714731a81504253279844b66813feb5b6317eb21da01efa1dc093073ffffffffffffffffffffffffffffffffffffffff16316040518082815260200191505060405180910390a13073ffffffffffffffffffffffffffffffffffffffff1631905090565b600080336000600460008373ffffffffffffffffffffffffffffffffffffffff1673ffffffffffffffffffffffffffffffffffffffff168152602001908152602001600020905060008160000160009054906101000a900473ffffffffffffffffffffffffffffffffffffffff1673ffffffffffffffffffffffffffffffffffffffff1614151515610b7757fe5b600460003373ffffffffffffffffffffffffffffffffffffffff1673ffffffffffffffffffffffffffffffffffffffff1681526020019081526020016000209350610bd0600a856002015461168890919063ffffffff16565b92504283101515610bdd57fe5b8284600201819055508360000160009054906101000a900473ffffffffffffffffffffffffffffffffffffffff1673ffffffffffffffffffffffffffffffffffffffff166108fc85600101549081150290604051600060405180830381858888f193505050501515610c4e57600080fd5b7f7decdec0fa70b21ecd45a15b04d5f5313c8fc915a1b3c034aa2bffa4fc8fc5918460000160009054906101000a900473ffffffffffffffffffffffffffffffffffffffff16604051808273ffffffffffffffffffffffffffffffffffffffff1673ffffffffffffffffffffffffffffffffffffffff16815260200191505060405180910390a150505050565b60046020528060005260406000206000915090508060000160009054906101000a900473ffffffffffffffffffffffffffffffffffffffff16908060010154908060020154905083565b60008060008060009054906101000a900473ffffffffffffffffffffffffffffffffffffffff1673ffffffffffffffffffffffffffffffffffffffff163373ffffffffffffffffffffffffffffffffffffffff16141515610d8557600080fd5b836000600460008373ffffffffffffffffffffffffffffffffffffffff1673ffffffffffffffffffffffffffffffffffffffff168152602001908152602001600020905060008160000160009054906101000a900473ffffffffffffffffffffffffffffffffffffffff1673ffffffffffffffffffffffffffffffffffffffff1614151515610e1057fe5b600460008773ffffffffffffffffffffffffffffffffffffffff1673ffffffffffffffffffffffffffffffffffffffff1681526020019081526020016000209450610ed085606060405190810160405290816000820160009054906101000a900473ffffffffffffffffffffffffffffffffffffffff1673ffffffffffffffffffffffffffffffffffffffff1673ffffffffffffffffffffffffffffffffffffffff168152602001600182015481526020016002820154815250506115e3565b610ee9856001015460015461166f90919063ffffffff16565b600181905550600460008773ffffffffffffffffffffffffffffffffffffffff1673ffffffffffffffffffffffffffffffffffffffff168152602001908152602001600020600080820160006101000a81549073ffffffffffffffffffffffffffffffffffffffff0219169055600182016000905560028201600090555050610f7e600160025461166f90919063ffffffff16565b6002819055506003805490509350600092505b838310156110f5578573ffffffffffffffffffffffffffffffffffffffff16600384815481101515610fbf57fe5b906000526020600020900160009054906101000a900473ffffffffffffffffffffffffffffffffffffffff1673ffffffffffffffffffffffffffffffffffffffff1614156110e85760038381548110151561101657fe5b906000526020600020900160006101000a81549073ffffffffffffffffffffffffffffffffffffffff021916905560036001850381548110151561105657fe5b906000526020600020900160009054906101000a900473ffffffffffffffffffffffffffffffffffffffff1660038481548110151561109157fe5b906000526020600020900160006101000a81548173ffffffffffffffffffffffffffffffffffffffff021916908373ffffffffffffffffffffffffffffffffffffffff160217905550838060019003945050611159565b8280600101935050610f91565b7f52d6abdca596d1c4a93f3df131dcf3a55ecaaa92ab3a0be58a15b98aab12d49b86604051808273ffffffffffffffffffffffffffffffffffffffff1673ffffffffffffffffffffffffffffffffffffffff16815260200191505060405180910390a15b505050505050565b60008060009054906101000a900473ffffffffffffffffffffffffffffffffffffffff1673ffffffffffffffffffffffffffffffffffffffff163373ffffffffffffffffffffffffffffffffffffffff161415156111be57600080fd5b826000600460008373ffffffffffffffffffffffffffffffffffffffff1673ffffffffffffffffffffffffffffffffffffffff168152602001908152602001600020905060008160000160009054906101000a900473ffffffffffffffffffffffffffffffffffffffff1673ffffffffffffffffffffffffffffffffffffffff1614151561124857fe5b611263670de0b6b3a7640000856115a890919063ffffffff16565b92506060604051908101604052808673ffffffffffffffffffffffffffffffffffffffff16815260200184815260200142815250600460008773ffffffffffffffffffffffffffffffffffffffff1673ffffffffffffffffffffffffffffffffffffffff16815260200190815260200160002060008201518160000160006101000a81548173ffffffffffffffffffffffffffffffffffffffff021916908373ffffffffffffffffffffffffffffffffffffffff16021790555060208201518160010155604082015181600201559050506113498360015461168890919063ffffffff16565b600181905550611365600160025461168890919063ffffffff16565b6002819055506003805480600101828161137f91906116a6565b9160005260206000209001600087909190916101000a81548173ffffffffffffffffffffffffffffffffffffffff021916908373ffffffffffffffffffffffffffffffffffffffff160217905550507f781b18cb87f69da304aa6a3ffdd3af7b95e6a6f8d000e3abb3dfde21cbe5810385604051808273ffffffffffffffffffffffffffffffffffffffff1673ffffffffffffffffffffffffffffffffffffffff16815260200191505060405180910390a15050505050565b6000809054906101000a900473ffffffffffffffffffffffffffffffffffffffff1673ffffffffffffffffffffffffffffffffffffffff163373ffffffffffffffffffffffffffffffffffffffff1614151561149357600080fd5b600073ffffffffffffffffffffffffffffffffffffffff168173ffffffffffffffffffffffffffffffffffffffff16141515156114cf57600080fd5b8073ffffffffffffffffffffffffffffffffffffffff166000809054906101000a900473ffffffffffffffffffffffffffffffffffffffff1673ffffffffffffffffffffffffffffffffffffffff167f8be0079c531659141344cd1fd0a4f28419497f9722a3daafe3b4186f6b6457e060405160405180910390a3806000806101000a81548173ffffffffffffffffffffffffffffffffffffffff021916908373ffffffffffffffffffffffffffffffffffffffff16021790555050565b600080828481151561159b57fe5b0490508091505092915050565b60008060008414156115bd57600091506115dc565b82840290508284828115156115ce57fe5b041415156115d857fe5b8091505b5092915050565b6000611625600a61161761160485604001514261166f90919063ffffffff16565b85602001516115a890919063ffffffff16565b61158d90919063ffffffff16565b9050816000015173ffffffffffffffffffffffffffffffffffffffff166108fc829081150290604051600060405180830381858888f19350505050151561166b57600080fd5b5050565b600082821115151561167d57fe5b818303905092915050565b600080828401905083811015151561169c57fe5b8091505092915050565b8154818355818115116116cd578183600052602060002091820191016116cc91906116d2565b5b505050565b6116f491905b808211156116f05760008160009055506001016116d8565b5090565b905600a165627a7a723058200b155a008d8e9f63f513e17999e1cab3b6356fc76d36738c23aa7868bcf3a8060029",
  "source": "pragma solidity ^0.4.14;\n\nimport './SafeMath.sol';\nimport './Ownable.sol';\n\ncontract Payroll is Ownable {\n    using SafeMath for uint;\n\n    struct Employee {\n        address id;\n        uint salary;\n        uint lastPayDay;\n    }\n\n    uint constant payDuration = 10 seconds;\n\n    uint totalSalary;\n    uint totalEmployee;\n    address[] employeeList;\n    mapping(address => Employee) public employees;\n\n    event AddEmployee(address employee);\n    event UpdateEmployee(address employee);\n    event RemoveEmployee(address employee);\n    event AddFund(uint balance);\n    event GetPaid(address employee);\n\n    modifier employeeExist(address employeeId) {\n        var employee = employees[employeeId];\n        assert(employee.id != 0x0);\n        _;\n    }\n\n    modifier employeeNotExist(address employeeId) {\n        var employee = employees[employeeId];\n        assert(employee.id == 0x0);\n        _;\n    }\n\n    function _partialPaid(Employee employee) private {\n        uint payment = employee.salary.mul(now.sub(employee.lastPayDay)).div(payDuration);\n        employee.id.transfer(payment);\n    }\n\n    function checkEmployee(uint index) public returns (address employeeId, uint salary, uint lastPayDay) {\n        employeeId   = employeeList[index];\n        var employee = employees[employeeId];\n        salary       = employee.salary;\n        lastPayDay   = employee.lastPayDay;\n    }\n\n    function addEmployee(address employeeId, uint _salary) onlyOwner employeeNotExist(employeeId) public {\n        uint salary  = _salary.mul(1 ether);\n        employees[employeeId] = Employee({id: employeeId, salary: salary, lastPayDay: now});\n        totalSalary           = totalSalary.add(salary);\n        totalEmployee         = totalEmployee.add(1);\n        employeeList.push(employeeId);\n\n        AddEmployee(employeeId);\n    }\n\n    function removeEmployee(address employeeId) onlyOwner employeeExist(employeeId) public {\n       var employee = employees[employeeId];\n        _partialPaid(employee);\n        totalSalary = totalSalary.sub(employee.salary);\n        delete employees[employeeId];\n        totalEmployee = totalEmployee.sub(1);\n\n        uint len = employeeList.length;\n        for(uint i = 0; i < len; i++) {\n            if (employeeList[i] == employeeId) {\n                delete employeeList[i];\n                employeeList[i] = employeeList[len-1];\n                len--;\n                return;\n            }\n        }\n\n        RemoveEmployee(employeeId);\n    }\n\n    function updateEmployee(address employeeId, uint salary) onlyOwner employeeExist(employeeId) public {\n        var employee   = employees[employeeId];\n        uint newSalary = salary.mul(1 ether);\n        assert(newSalary != employee.salary);\n\n        _partialPaid(employee);\n        totalSalary         = totalSalary.sub(employee.salary).add(newSalary);\n        employee.salary     = newSalary;\n        employee.lastPayDay = now;\n\n        UpdateEmployee(employeeId);\n    }\n\n    function changePaymentAddress(address employeeNewId) employeeExist(msg.sender) employeeNotExist(employeeNewId) public {\n        var employee = employees[msg.sender];\n        employees[employeeNewId] = Employee({id: employeeNewId, salary: employee.salary, lastPayDay: employee.lastPayDay});\n        delete employees[msg.sender];\n    }\n\n    function addFund() payable public returns (uint) {\n        AddFund(this.balance);\n        return this.balance;\n    }\n\n    function calculateRunway() public returns (uint) {\n        return this.balance.div(totalSalary);\n    }\n\n    function hasEnoughFund() public returns (bool) {\n        return calculateRunway() > 0;\n    }\n\n    function getPaid() employeeExist(msg.sender) public {\n        var employee    = employees[msg.sender];\n        uint nextPayDay = employee.lastPayDay.add(payDuration);\n        assert(nextPayDay < now);\n\n        employee.lastPayDay = nextPayDay;\n        employee.id.transfer(employee.salary);\n\n        GetPaid(employee.id);\n    }\n\n    function checkInfo() public returns (uint balance, uint runway, uint employeeCount) {\n        balance       = this.balance;\n        employeeCount = totalEmployee;\n        if (totalSalary > 0) {\n            runway = calculateRunway();\n        }   \n    }\n}\n",
  "sourcePath": "/home/juicebox/payroll/contracts/Payroll.sol",
  "compiler": {
    "name": "solc",
    "version": "0.4.18+commit.9cf6e910.Emscripten.clang"
  },
  "schemaVersion": "1.0.1",
  "updatedAt": "2018-01-25T09:34:12.711Z"
}